{
  "_format": "hh-sol-artifact-1",
  "contractName": "USDCManager",
  "sourceName": "contracts/USDCManager.sol",
  "abi": [
    {
      "inputs": [
        {
          "internalType": "address",
          "name": "_usdcToken",
          "type": "address"
        },
        {
          "internalType": "address",
          "name": "_tokenMessenger",
          "type": "address"
        },
        {
          "internalType": "address",
          "name": "_messageTransmitter",
          "type": "address"
        },
        {
          "internalType": "address",
          "name": "_priceMonitor",
          "type": "address"
        }
      ],
      "stateMutability": "nonpayable",
      "type": "constructor"
    },
    {
      "inputs": [
        {
          "internalType": "address",
          "name": "owner",
          "type": "address"
        }
      ],
      "name": "OwnableInvalidOwner",
      "type": "error"
    },
    {
      "inputs": [
        {
          "internalType": "address",
          "name": "account",
          "type": "address"
        }
      ],
      "name": "OwnableUnauthorizedAccount",
      "type": "error"
    },
    {
      "anonymous": false,
      "inputs": [
        {
          "indexed": true,
          "internalType": "address",
          "name": "user",
          "type": "address"
        },
        {
          "indexed": false,
          "internalType": "uint256",
          "name": "amount",
          "type": "uint256"
        },
        {
          "indexed": false,
          "internalType": "bytes32",
          "name": "messageHash",
          "type": "bytes32"
        }
      ],
      "name": "ClaimPayoutCompleted",
      "type": "event"
    },
    {
      "anonymous": false,
      "inputs": [
        {
          "indexed": true,
          "internalType": "address",
          "name": "user",
          "type": "address"
        },
        {
          "indexed": false,
          "internalType": "uint256",
          "name": "amount",
          "type": "uint256"
        },
        {
          "indexed": false,
          "internalType": "uint32",
          "name": "destinationDomain",
          "type": "uint32"
        },
        {
          "indexed": false,
          "internalType": "uint64",
          "name": "nonce",
          "type": "uint64"
        }
      ],
      "name": "ClaimPayoutInitiated",
      "type": "event"
    },
    {
      "anonymous": false,
      "inputs": [
        {
          "indexed": false,
          "internalType": "bytes32",
          "name": "messageHash",
          "type": "bytes32"
        },
        {
          "indexed": false,
          "internalType": "address",
          "name": "recipient",
          "type": "address"
        },
        {
          "indexed": false,
          "internalType": "uint256",
          "name": "amount",
          "type": "uint256"
        }
      ],
      "name": "CrossChainTransferCompleted",
      "type": "event"
    },
    {
      "anonymous": false,
      "inputs": [
        {
          "indexed": false,
          "internalType": "uint256",
          "name": "amount",
          "type": "uint256"
        },
        {
          "indexed": false,
          "internalType": "uint32",
          "name": "destinationDomain",
          "type": "uint32"
        },
        {
          "indexed": false,
          "internalType": "bytes32",
          "name": "recipient",
          "type": "bytes32"
        },
        {
          "indexed": false,
          "internalType": "uint64",
          "name": "nonce",
          "type": "uint64"
        }
      ],
      "name": "CrossChainTransferInitiated",
      "type": "event"
    },
    {
      "anonymous": false,
      "inputs": [
        {
          "indexed": true,
          "internalType": "address",
          "name": "previousOwner",
          "type": "address"
        },
        {
          "indexed": true,
          "internalType": "address",
          "name": "newOwner",
          "type": "address"
        }
      ],
      "name": "OwnershipTransferred",
      "type": "event"
    },
    {
      "anonymous": false,
      "inputs": [
        {
          "indexed": true,
          "internalType": "address",
          "name": "user",
          "type": "address"
        },
        {
          "indexed": true,
          "internalType": "bytes32",
          "name": "protocolId",
          "type": "bytes32"
        },
        {
          "indexed": false,
          "internalType": "uint256",
          "name": "amount",
          "type": "uint256"
        }
      ],
      "name": "PremiumPaid",
      "type": "event"
    },
    {
      "anonymous": false,
      "inputs": [
        {
          "indexed": true,
          "internalType": "address",
          "name": "user",
          "type": "address"
        },
        {
          "indexed": false,
          "internalType": "uint256",
          "name": "amount",
          "type": "uint256"
        },
        {
          "indexed": false,
          "internalType": "uint32",
          "name": "destinationDomain",
          "type": "uint32"
        }
      ],
      "name": "USDCDeposited",
      "type": "event"
    },
    {
      "inputs": [],
      "name": "ARBITRUM_DOMAIN",
      "outputs": [
        {
          "internalType": "uint32",
          "name": "",
          "type": "uint32"
        }
      ],
      "stateMutability": "view",
      "type": "function"
    },
    {
      "inputs": [],
      "name": "BASE_DOMAIN",
      "outputs": [
        {
          "internalType": "uint32",
          "name": "",
          "type": "uint32"
        }
      ],
      "stateMutability": "view",
      "type": "function"
    },
    {
      "inputs": [],
      "name": "ETHEREUM_DOMAIN",
      "outputs": [
        {
          "internalType": "uint32",
          "name": "",
          "type": "uint32"
        }
      ],
      "stateMutability": "view",
      "type": "function"
    },
    {
      "inputs": [
        {
          "internalType": "uint256",
          "name": "amount",
          "type": "uint256"
        },
        {
          "internalType": "uint32",
          "name": "destinationDomain",
          "type": "uint32"
        }
      ],
      "name": "depositUSDC",
      "outputs": [],
      "stateMutability": "nonpayable",
      "type": "function"
    },
    {
      "inputs": [
        {
          "internalType": "uint256",
          "name": "amount",
          "type": "uint256"
        }
      ],
      "name": "emergencyWithdraw",
      "outputs": [],
      "stateMutability": "nonpayable",
      "type": "function"
    },
    {
      "inputs": [
        {
          "internalType": "uint64",
          "name": "nonce",
          "type": "uint64"
        }
      ],
      "name": "getPendingClaim",
      "outputs": [
        {
          "components": [
            {
              "internalType": "address",
              "name": "user",
              "type": "address"
            },
            {
              "internalType": "uint256",
              "name": "amount",
              "type": "uint256"
            },
            {
              "internalType": "uint32",
              "name": "destinationDomain",
              "type": "uint32"
            },
            {
              "internalType": "uint64",
              "name": "nonce",
              "type": "uint64"
            },
            {
              "internalType": "bool",
              "name": "isCompleted",
              "type": "bool"
            },
            {
              "internalType": "uint256",
              "name": "timestamp",
              "type": "uint256"
            }
          ],
          "internalType": "struct USDCManager.PendingClaim",
          "name": "claim",
          "type": "tuple"
        }
      ],
      "stateMutability": "view",
      "type": "function"
    },
    {
      "inputs": [],
      "name": "getPoolStats",
      "outputs": [
        {
          "internalType": "uint256",
          "name": "totalBalance",
          "type": "uint256"
        },
        {
          "internalType": "uint256",
          "name": "totalClaimsAmount",
          "type": "uint256"
        },
        {
          "internalType": "uint256",
          "name": "totalPremiumsCollected",
          "type": "uint256"
        }
      ],
      "stateMutability": "view",
      "type": "function"
    },
    {
      "inputs": [
        {
          "internalType": "address",
          "name": "user",
          "type": "address"
        },
        {
          "internalType": "bytes32",
          "name": "protocolId",
          "type": "bytes32"
        }
      ],
      "name": "getUserCoverage",
      "outputs": [
        {
          "components": [
            {
              "internalType": "uint256",
              "name": "coverageAmount",
              "type": "uint256"
            },
            {
              "internalType": "uint256",
              "name": "premiumPaid",
              "type": "uint256"
            },
            {
              "internalType": "uint256",
              "name": "lastPremiumPayment",
              "type": "uint256"
            },
            {
              "internalType": "bool",
              "name": "isActive",
              "type": "bool"
            },
            {
              "internalType": "bytes32",
              "name": "protocolId",
              "type": "bytes32"
            }
          ],
          "internalType": "struct USDCManager.InsuranceCoverage",
          "name": "coverage",
          "type": "tuple"
        }
      ],
      "stateMutability": "view",
      "type": "function"
    },
    {
      "inputs": [],
      "name": "messageTransmitter",
      "outputs": [
        {
          "internalType": "contract IMessageTransmitter",
          "name": "",
          "type": "address"
        }
      ],
      "stateMutability": "view",
      "type": "function"
    },
    {
      "inputs": [],
      "name": "owner",
      "outputs": [
        {
          "internalType": "address",
          "name": "",
          "type": "address"
        }
      ],
      "stateMutability": "view",
      "type": "function"
    },
    {
      "inputs": [
        {
          "internalType": "uint64",
          "name": "",
          "type": "uint64"
        }
      ],
      "name": "pendingClaims",
      "outputs": [
        {
          "internalType": "address",
          "name": "user",
          "type": "address"
        },
        {
          "internalType": "uint256",
          "name": "amount",
          "type": "uint256"
        },
        {
          "internalType": "uint32",
          "name": "destinationDomain",
          "type": "uint32"
        },
        {
          "internalType": "uint64",
          "name": "nonce",
          "type": "uint64"
        },
        {
          "internalType": "bool",
          "name": "isCompleted",
          "type": "bool"
        },
        {
          "internalType": "uint256",
          "name": "timestamp",
          "type": "uint256"
        }
      ],
      "stateMutability": "view",
      "type": "function"
    },
    {
      "inputs": [],
      "name": "priceMonitor",
      "outputs": [
        {
          "internalType": "address",
          "name": "",
          "type": "address"
        }
      ],
      "stateMutability": "view",
      "type": "function"
    },
    {
      "inputs": [
        {
          "internalType": "address",
          "name": "user",
          "type": "address"
        },
        {
          "internalType": "uint256",
          "name": "amount",
          "type": "uint256"
        },
        {
          "internalType": "uint32",
          "name": "destinationDomain",
          "type": "uint32"
        }
      ],
      "name": "processClaimPayout",
      "outputs": [],
      "stateMutability": "nonpayable",
      "type": "function"
    },
    {
      "inputs": [
        {
          "internalType": "bytes32",
          "name": "",
          "type": "bytes32"
        }
      ],
      "name": "processedMessages",
      "outputs": [
        {
          "internalType": "bool",
          "name": "",
          "type": "bool"
        }
      ],
      "stateMutability": "view",
      "type": "function"
    },
    {
      "inputs": [
        {
          "internalType": "bytes32",
          "name": "protocolId",
          "type": "bytes32"
        },
        {
          "internalType": "uint256",
          "name": "coverageAmount",
          "type": "uint256"
        },
        {
          "internalType": "uint256",
          "name": "premiumAmount",
          "type": "uint256"
        }
      ],
      "name": "purchaseInsurance",
      "outputs": [],
      "stateMutability": "nonpayable",
      "type": "function"
    },
    {
      "inputs": [
        {
          "internalType": "bytes",
          "name": "message",
          "type": "bytes"
        },
        {
          "internalType": "bytes",
          "name": "attestation",
          "type": "bytes"
        }
      ],
      "name": "receiveMessage",
      "outputs": [
        {
          "internalType": "bool",
          "name": "",
          "type": "bool"
        }
      ],
      "stateMutability": "nonpayable",
      "type": "function"
    },
    {
      "inputs": [],
      "name": "renounceOwnership",
      "outputs": [],
      "stateMutability": "nonpayable",
      "type": "function"
    },
    {
      "inputs": [],
      "name": "tokenMessenger",
      "outputs": [
        {
          "internalType": "contract ITokenMessenger",
          "name": "",
          "type": "address"
        }
      ],
      "stateMutability": "view",
      "type": "function"
    },
    {
      "inputs": [],
      "name": "totalClaims",
      "outputs": [
        {
          "internalType": "uint256",
          "name": "",
          "type": "uint256"
        }
      ],
      "stateMutability": "view",
      "type": "function"
    },
    {
      "inputs": [],
      "name": "totalPoolBalance",
      "outputs": [
        {
          "internalType": "uint256",
          "name": "",
          "type": "uint256"
        }
      ],
      "stateMutability": "view",
      "type": "function"
    },
    {
      "inputs": [],
      "name": "totalPremiums",
      "outputs": [
        {
          "internalType": "uint256",
          "name": "",
          "type": "uint256"
        }
      ],
      "stateMutability": "view",
      "type": "function"
    },
    {
      "inputs": [
        {
          "internalType": "address",
          "name": "newOwner",
          "type": "address"
        }
      ],
      "name": "transferOwnership",
      "outputs": [],
      "stateMutability": "nonpayable",
      "type": "function"
    },
    {
      "inputs": [
        {
          "internalType": "address",
          "name": "newTokenMessenger",
          "type": "address"
        },
        {
          "internalType": "address",
          "name": "newMessageTransmitter",
          "type": "address"
        }
      ],
      "name": "updateContracts",
      "outputs": [],
      "stateMutability": "nonpayable",
      "type": "function"
    },
    {
      "inputs": [
        {
          "internalType": "address",
          "name": "newPriceMonitor",
          "type": "address"
        }
      ],
      "name": "updatePriceMonitor",
      "outputs": [],
      "stateMutability": "nonpayable",
      "type": "function"
    },
    {
      "inputs": [],
      "name": "usdcToken",
      "outputs": [
        {
          "internalType": "contract IERC20",
          "name": "",
          "type": "address"
        }
      ],
      "stateMutability": "view",
      "type": "function"
    },
    {
      "inputs": [
        {
          "internalType": "address",
          "name": "",
          "type": "address"
        },
        {
          "internalType": "bytes32",
          "name": "",
          "type": "bytes32"
        }
      ],
      "name": "userCoverage",
      "outputs": [
        {
          "internalType": "uint256",
          "name": "coverageAmount",
          "type": "uint256"
        },
        {
          "internalType": "uint256",
          "name": "premiumPaid",
          "type": "uint256"
        },
        {
          "internalType": "uint256",
          "name": "lastPremiumPayment",
          "type": "uint256"
        },
        {
          "internalType": "bool",
          "name": "isActive",
          "type": "bool"
        },
        {
          "internalType": "bytes32",
          "name": "protocolId",
          "type": "bytes32"
        }
      ],
      "stateMutability": "view",
      "type": "function"
    },
    {
      "inputs": [
        {
          "internalType": "address",
          "name": "",
          "type": "address"
        }
      ],
      "name": "userDeposits",
      "outputs": [
        {
          "internalType": "uint256",
          "name": "",
          "type": "uint256"
        }
      ],
      "stateMutability": "view",
      "type": "function"
    }
  ],
  "bytecode": "0x60806040523480156200001157600080fd5b5060405162001cba38038062001cba833981016040819052620000349162000226565b33806200005c57604051631e4fbdf760e01b8152600060048201526024015b60405180910390fd5b6200006781620001b9565b506001600160a01b038416620000b55760405162461bcd60e51b815260206004820152601260248201527124b73b30b634b2102aa9a221903a37b5b2b760711b604482015260640162000053565b6001600160a01b0383166200010d5760405162461bcd60e51b815260206004820152601760248201527f496e76616c696420746f6b656e206d657373656e676572000000000000000000604482015260640162000053565b6001600160a01b038216620001655760405162461bcd60e51b815260206004820152601b60248201527f496e76616c6964206d657373616765207472616e736d69747465720000000000604482015260640162000053565b600180546001600160a01b039586166001600160a01b031991821617909155600280549486169482169490941790935560038054928516928416929092179091556004805491909316911617905562000283565b600080546001600160a01b038381166001600160a01b0319831681178455604051919092169283917f8be0079c531659141344cd1fd0a4f28419497f9722a3daafe3b4186f6b6457e09190a35050565b80516001600160a01b03811681146200022157600080fd5b919050565b600080600080608085870312156200023d57600080fd5b620002488562000209565b9350620002586020860162000209565b9250620002686040860162000209565b9150620002786060860162000209565b905092959194509250565b611a2780620002936000396000f3fe608060405234801561001057600080fd5b50600436106101a95760003560e01c8063715018a6116100f9578063bbb8518811610097578063e968ba6211610071578063e968ba6214610498578063e96a10ba146104ef578063ee987d0114610502578063f2fde38b1461062757600080fd5b8063bbb8518814610459578063e684c9d51461047d578063e692c49f1461048557600080fd5b80638b12e247116100d35780638b12e247146103705780638bcf322f146103835780638da5cb5b14610396578063a2736f1b146103a757600080fd5b8063715018a6146103325780637b04c1811461033a57806388ba16ab1461034d57600080fd5b806341c61383116101665780635312ea8e116101405780635312ea8e146102eb57806357ecfd28146102fe5780635bda1584146103215780636fbdca251461032a57600080fd5b806341c61383146102c657806346117830146102cf5780635026d63e146102e257600080fd5b80630ba36dcd146101ae57806311eac855146101e15780631d76ba351461020c57806326e43832146102215780632c1ff96f14610296578063406f0b2f146102a9575b600080fd5b6101ce6101bc3660046116ec565b60066020526000908152604090205481565b6040519081526020015b60405180910390f35b6001546101f4906001600160a01b031681565b6040516001600160a01b0390911681526020016101d8565b61021f61021a3660046116ec565b61063a565b005b61026c61022f36600461170e565b60056020908152600092835260408084209091529082529020805460018201546002830154600384015460049094015492939192909160ff169085565b6040805195865260208601949094529284019190915215156060830152608082015260a0016101d8565b6004546101f4906001600160a01b031681565b6102b1600381565b60405163ffffffff90911681526020016101d8565b6101ce600a5481565b6002546101f4906001600160a01b031681565b6101ce60095481565b61021f6102f9366004611738565b6106b1565b61031161030c36600461179a565b6107ee565b60405190151581526020016101d8565b6101ce600b5481565b6102b1600681565b61021f6109b0565b6003546101f4906001600160a01b031681565b61031161035b366004611738565b60086020526000908152604090205460ff1681565b61021f61037e36600461181a565b6109c4565b61021f610391366004611856565b610f59565b6000546001600160a01b03166101f4565b61040d6103b5366004611898565b60076020526000908152604090208054600182015460028301546003909301546001600160a01b0390921692909163ffffffff821691640100000000810467ffffffffffffffff1691600160601b90910460ff169086565b604080516001600160a01b039097168752602087019590955263ffffffff9093169385019390935267ffffffffffffffff166060840152901515608083015260a082015260c0016101d8565b600954600a54600b54604080519384526020840192909252908201526060016101d8565b6102b1600081565b61021f6104933660046118b5565b6111b0565b6104ab6104a636600461170e565b611212565b6040516101d89190600060a0820190508251825260208301516020830152604083015160408301526060830151151560608301526080830151608083015292915050565b61021f6104fd3660046118e8565b61129e565b6105c5610510366004611898565b6040805160c081018252600080825260208201819052918101829052606081018290526080810182905260a08101919091525067ffffffffffffffff908116600090815260076020908152604091829020825160c08101845281546001600160a01b03168152600182015492810192909252600281015463ffffffff81169383019390935264010000000083049093166060820152600160601b90910460ff161515608082015260039091015460a082015290565b6040516101d8919081516001600160a01b031681526020808301519082015260408083015163ffffffff169082015260608083015167ffffffffffffffff169082015260808083015115159082015260a0918201519181019190915260c00190565b61021f6106353660046116ec565b611615565b610642611653565b6001600160a01b03811661068f5760405162461bcd60e51b815260206004820152600f60248201526e496e76616c6964206164647265737360881b60448201526064015b60405180910390fd5b600480546001600160a01b0319166001600160a01b0392909216919091179055565b6106b9611653565b6009548111156107025760405162461bcd60e51b8152602060048201526014602482015273496e73756666696369656e742062616c616e636560601b6044820152606401610686565b6001546001600160a01b031663a9059cbb6107256000546001600160a01b031690565b6040516001600160e01b031960e084901b1681526001600160a01b039091166004820152602481018490526044016020604051808303816000875af1158015610772573d6000803e3d6000fd5b505050506040513d601f19601f82011682018060405250810190610796919061190b565b6107d45760405162461bcd60e51b815260206004820152600f60248201526e151c985b9cd9995c8819985a5b1959608a1b6044820152606401610686565b80600960008282546107e69190611943565b909155505050565b6000808585604051610801929190611956565b604080519182900390912060008181526008602052919091205490915060ff161561086e5760405162461bcd60e51b815260206004820152601960248201527f4d65737361676520616c72656164792070726f636573736564000000000000006044820152606401610686565b600354604051630afd9fa560e31b81526000916001600160a01b0316906357ecfd28906108a5908a908a908a908a9060040161198f565b6020604051808303816000875af11580156108c4573d6000803e3d6000fd5b505050506040513d601f19601f820116820180604052508101906108e8919061190b565b9050806109375760405162461bcd60e51b815260206004820152601b60248201527f4d65737361676520766572696669636174696f6e206661696c656400000000006044820152606401610686565b600082815260086020526040808220805460ff19166001179055517fa3fb1fdca3e6a59a3846c92573a5ef77e64e67e318bf125538fcaf0aef7509da9161099b91859133919283526001600160a01b03919091166020830152604082015260600190565b60405180910390a15060019695505050505050565b6109b8611653565b6109c26000611680565b565b6004546001600160a01b03163314610a1e5760405162461bcd60e51b815260206004820152601b60248201527f4f6e6c79207072696365206d6f6e69746f722063616e2063616c6c00000000006044820152606401610686565b8063ffffffff81161580610a38575063ffffffff81166003145b80610a49575063ffffffff81166006145b610a865760405162461bcd60e51b815260206004820152600e60248201526d24b73b30b634b2103237b6b0b4b760911b6044820152606401610686565b6001600160a01b038416610ad35760405162461bcd60e51b8152602060048201526014602482015273496e76616c69642075736572206164647265737360601b6044820152606401610686565b60008311610b235760405162461bcd60e51b815260206004820152601d60248201527f416d6f756e74206d7573742062652067726561746572207468616e20300000006044820152606401610686565b826009541015610b755760405162461bcd60e51b815260206004820152601960248201527f496e73756666696369656e7420706f6f6c2062616c616e6365000000000000006044820152606401610686565b8163ffffffff16600003610ce55760015460405163a9059cbb60e01b81526001600160a01b038681166004830152602482018690529091169063a9059cbb906044016020604051808303816000875af1158015610bd6573d6000803e3d6000fd5b505050506040513d601f19601f82011682018060405250810190610bfa919061190b565b610c3d5760405162461bcd60e51b81526020600482015260146024820152731554d110c81d1c985b9cd9995c8819985a5b195960621b6044820152606401610686565b6001600160a01b03841660009081526006602052604081208054859290610c65908490611943565b925050819055508260096000828254610c7e9190611943565b9250508190555082600a6000828254610c9791906119c1565b909155505060408051848152600060208201526001600160a01b038616917f1073e312fc5df6efe4814e89bb3997e7002340794edb2c714406e99707ced350910160405180910390a2610f53565b60015460025460405163095ea7b360e01b81526001600160a01b0391821660048201526024810186905286821692919091169063095ea7b3906044016020604051808303816000875af1158015610d40573d6000803e3d6000fd5b505050506040513d601f19601f82011682018060405250810190610d64919061190b565b506002546001546040516337e9a82760e11b81526004810187905263ffffffff86166024820152604481018490526001600160a01b0391821660648201526000929190911690636fd3504e906084016020604051808303816000875af1158015610dd2573d6000803e3d6000fd5b505050506040513d601f19601f82011682018060405250810190610df691906119d4565b6040805160c0810182526001600160a01b03808a16825260208083018a815263ffffffff808b1685870190815267ffffffffffffffff80891660608801818152600060808a018181524260a08c019081529382526007909852998a209851895498166001600160a01b0319909816979097178855935160018801559051600287018054965195511515600160601b0260ff60601b1996909316640100000000026bffffffffffffffffffffffff199097169190931617949094179290921692909217905551600390910155600980549293508792909190610ed8908490611943565b9250508190555084600a6000828254610ef191906119c1565b90915550506040805186815263ffffffff8616602082015267ffffffffffffffff83168183015290516001600160a01b038816917f3a4dcb27246414ed6fd370ae34649e9bcaca02baaddc320ea097c51004c6daac919081900360600190a250505b50505050565b60008211610fb85760405162461bcd60e51b815260206004820152602660248201527f436f76657261676520616d6f756e74206d75737420626520677265617465722060448201526507468616e20360d41b6064820152608401610686565b600081116110165760405162461bcd60e51b815260206004820152602560248201527f5072656d69756d20616d6f756e74206d75737420626520677265617465722074604482015264068616e20360dc1b6064820152608401610686565b6001546040516323b872dd60e01b8152336004820152306024820152604481018390526001600160a01b03909116906323b872dd906064016020604051808303816000875af115801561106d573d6000803e3d6000fd5b505050506040513d601f19601f82011682018060405250810190611091919061190b565b6110d65760405162461bcd60e51b8152602060048201526016602482015275141c995b5a5d5b481c185e5b595b9d0819985a5b195960521b6044820152606401610686565b33600090815260056020908152604080832086845290915281208054909184918391906111049084906119c1565b925050819055508181600101600082825461111f91906119c1565b909155505042600282015560038101805460ff1916600117905560048101849055600980548391906000906111559084906119c1565b9250508190555081600b600082825461116e91906119c1565b9091555050604051828152849033907f38515ab1fa2daeb971b86112840b9a39fcf2060ca9bec3dc83717be59c76087d9060200160405180910390a350505050565b6111b8611653565b6001600160a01b038216156111e357600280546001600160a01b0319166001600160a01b0384161790555b6001600160a01b0381161561120e57600380546001600160a01b0319166001600160a01b0383161790555b5050565b6040805160a0808201835260008083526020808401829052838501829052606080850183905260809485018390526001600160a01b0388168352600582528583208784528252918590208551938401865280548452600181015491840191909152600281015494830194909452600384015460ff16151590820152600490920154908201525b92915050565b8063ffffffff811615806112b8575063ffffffff81166003145b806112c9575063ffffffff81166006145b6113065760405162461bcd60e51b815260206004820152600e60248201526d24b73b30b634b2103237b6b0b4b760911b6044820152606401610686565b600083116113565760405162461bcd60e51b815260206004820152601d60248201527f416d6f756e74206d7573742062652067726561746572207468616e20300000006044820152606401610686565b6001546040516323b872dd60e01b8152336004820152306024820152604481018590526001600160a01b03909116906323b872dd906064016020604051808303816000875af11580156113ad573d6000803e3d6000fd5b505050506040513d601f19601f820116820180604052508101906113d1919061190b565b6114145760405162461bcd60e51b81526020600482015260146024820152731554d110c81d1c985b9cd9995c8819985a5b195960621b6044820152606401610686565b8163ffffffff166000036114655733600090815260066020526040812080548592906114419084906119c1565b92505081905550826009600082825461145a91906119c1565b909155506115d09050565b60015460025460405163095ea7b360e01b81526001600160a01b039182166004820152602481018690523392919091169063095ea7b3906044016020604051808303816000875af11580156114be573d6000803e3d6000fd5b505050506040513d601f19601f820116820180604052508101906114e2919061190b565b506002546001546040516337e9a82760e11b81526004810187905263ffffffff86166024820152604481018490526001600160a01b0391821660648201526000929190911690636fd3504e906084016020604051808303816000875af1158015611550573d6000803e3d6000fd5b505050506040513d601f19601f8201168201806040525081019061157491906119d4565b6040805187815263ffffffff8716602082015290810184905267ffffffffffffffff821660608201529091507fe7a59b3dd2642f601a173da28221179064400636d5b146e54f38b645afeef5df9060800160405180910390a150505b6040805184815263ffffffff8416602082015233917f8a529d7295e1fd85d4607eef53f884040510d6f8f63ef7487ee2348060c67b5a910160405180910390a2505050565b61161d611653565b6001600160a01b03811661164757604051631e4fbdf760e01b815260006004820152602401610686565b61165081611680565b50565b6000546001600160a01b031633146109c25760405163118cdaa760e01b8152336004820152602401610686565b600080546001600160a01b038381166001600160a01b0319831681178455604051919092169283917f8be0079c531659141344cd1fd0a4f28419497f9722a3daafe3b4186f6b6457e09190a35050565b80356001600160a01b03811681146116e757600080fd5b919050565b6000602082840312156116fe57600080fd5b611707826116d0565b9392505050565b6000806040838503121561172157600080fd5b61172a836116d0565b946020939093013593505050565b60006020828403121561174a57600080fd5b5035919050565b60008083601f84011261176357600080fd5b50813567ffffffffffffffff81111561177b57600080fd5b60208301915083602082850101111561179357600080fd5b9250929050565b600080600080604085870312156117b057600080fd5b843567ffffffffffffffff808211156117c857600080fd5b6117d488838901611751565b909650945060208701359150808211156117ed57600080fd5b506117fa87828801611751565b95989497509550505050565b803563ffffffff811681146116e757600080fd5b60008060006060848603121561182f57600080fd5b611838846116d0565b92506020840135915061184d60408501611806565b90509250925092565b60008060006060848603121561186b57600080fd5b505081359360208301359350604090920135919050565b67ffffffffffffffff8116811461165057600080fd5b6000602082840312156118aa57600080fd5b813561170781611882565b600080604083850312156118c857600080fd5b6118d1836116d0565b91506118df602084016116d0565b90509250929050565b600080604083850312156118fb57600080fd5b823591506118df60208401611806565b60006020828403121561191d57600080fd5b8151801515811461170757600080fd5b634e487b7160e01b600052601160045260246000fd5b818103818111156112985761129861192d565b8183823760009101908152919050565b81835281816020850137506000828201602090810191909152601f909101601f19169091010190565b6040815260006119a3604083018688611966565b82810360208401526119b6818587611966565b979650505050505050565b808201808211156112985761129861192d565b6000602082840312156119e657600080fd5b81516117078161188256fea26469706673582212209f94f59bb4bf0f9fe77becf26232f6595063a6f010e20c1bce1192d547aced5164736f6c63430008140033",
  "linkReferences": {},
  "deployedLinkReferences": {}
}