{
  "_format": "hh-sol-artifact-1",
  "contractName": "SimplePriceMonitor",
  "sourceName": "contracts/PriceMonitor.sol",
  "abi": [
    {
      "inputs": [],
      "stateMutability": "nonpayable",
      "type": "constructor"
    },
    {
      "anonymous": false,
      "inputs": [
        {
          "indexed": true,
          "internalType": "address",
          "name": "aggregator",
          "type": "address"
        },
        {
          "indexed": false,
          "internalType": "int256",
          "name": "price",
          "type": "int256"
        },
        {
          "indexed": false,
          "internalType": "uint256",
          "name": "timestamp",
          "type": "uint256"
        }
      ],
      "name": "PriceChecked",
      "type": "event"
    },
    {
      "anonymous": false,
      "inputs": [
        {
          "indexed": true,
          "internalType": "bytes32",
          "name": "protocolId",
          "type": "bytes32"
        },
        {
          "indexed": false,
          "internalType": "bool",
          "name": "isHealthy",
          "type": "bool"
        }
      ],
      "name": "ProtocolHealthChecked",
      "type": "event"
    },
    {
      "inputs": [
        {
          "internalType": "bytes32",
          "name": "protocolId",
          "type": "bytes32"
        },
        {
          "internalType": "address",
          "name": "aggregator",
          "type": "address"
        }
      ],
      "name": "addProtocol",
      "outputs": [],
      "stateMutability": "nonpayable",
      "type": "function"
    },
    {
      "inputs": [
        {
          "internalType": "bytes32",
          "name": "protocolId",
          "type": "bytes32"
        }
      ],
      "name": "checkProtocolHealth",
      "outputs": [
        {
          "internalType": "bool",
          "name": "",
          "type": "bool"
        }
      ],
      "stateMutability": "nonpayable",
      "type": "function"
    },
    {
      "inputs": [
        {
          "internalType": "bytes32",
          "name": "protocolId",
          "type": "bytes32"
        }
      ],
      "name": "getLatestPrice",
      "outputs": [
        {
          "internalType": "int256",
          "name": "",
          "type": "int256"
        }
      ],
      "stateMutability": "view",
      "type": "function"
    },
    {
      "inputs": [
        {
          "internalType": "bytes32",
          "name": "protocolId",
          "type": "bytes32"
        }
      ],
      "name": "getProtocolAggregator",
      "outputs": [
        {
          "internalType": "address",
          "name": "",
          "type": "address"
        }
      ],
      "stateMutability": "view",
      "type": "function"
    },
    {
      "inputs": [],
      "name": "owner",
      "outputs": [
        {
          "internalType": "address",
          "name": "",
          "type": "address"
        }
      ],
      "stateMutability": "view",
      "type": "function"
    },
    {
      "inputs": [
        {
          "internalType": "bytes32",
          "name": "",
          "type": "bytes32"
        }
      ],
      "name": "protocolAggregators",
      "outputs": [
        {
          "internalType": "address",
          "name": "",
          "type": "address"
        }
      ],
      "stateMutability": "view",
      "type": "function"
    },
    {
      "inputs": [
        {
          "internalType": "bytes32",
          "name": "",
          "type": "bytes32"
        }
      ],
      "name": "protocolStatus",
      "outputs": [
        {
          "internalType": "bool",
          "name": "",
          "type": "bool"
        }
      ],
      "stateMutability": "view",
      "type": "function"
    }
  ],
  "bytecode": "0x608060405234801561001057600080fd5b50600280546001600160a01b031916331790556105bd806100326000396000f3fe608060405234801561001057600080fd5b506004361061007c5760003560e01c80638da5cb5b1161005b5780638da5cb5b1461010d578063b2ee2f0114610120578063ceae3b0b14610141578063e0a96b9c1461015657600080fd5b8062b4ed67146100815780631fb66bac146100b957806384e85a5c146100fa575b600080fd5b6100a461008f36600461049c565b60016020526000908152604090205460ff1681565b60405190151581526020015b60405180910390f35b6100e26100c736600461049c565b6000602081905290815260409020546001600160a01b031681565b6040516001600160a01b0390911681526020016100b0565b6100a461010836600461049c565b61017f565b6002546100e2906001600160a01b031681565b61013361012e36600461049c565b6102f7565b6040519081526020016100b0565b61015461014f3660046104b5565b6103c8565b005b6100e261016436600461049c565b6000908152602081905260409020546001600160a01b031690565b6000818152602081905260408120546001600160a01b0316806101de5760405162461bcd60e51b8152602060048201526012602482015271141c9bdd1bd8dbdb081b9bdd08199bdd5b9960721b60448201526064015b60405180910390fd5b6000819050600080826001600160a01b031663feaf968c6040518163ffffffff1660e01b815260040160a060405180830381865afa158015610224573d6000803e3d6000fd5b505050506040513d601f19601f820116820180604052508101906102489190610510565b509350509250506000808313801561026a5750610e106102688342610560565b105b60408051858152602081018590529192506001600160a01b038716917f69631c8186b703344841f003687fef471d737fbb6e74c47adaf3d92a1782541e910160405180910390a2867f3e161903bca7785e0de4c704cda0ba2215174f8c00996a0481deb98703b54d26826040516102e5911515815260200190565b60405180910390a29695505050505050565b6000818152602081905260408120546001600160a01b0316806103515760405162461bcd60e51b8152602060048201526012602482015271141c9bdd1bd8dbdb081b9bdd08199bdd5b9960721b60448201526064016101d5565b60008190506000816001600160a01b031663feaf968c6040518163ffffffff1660e01b815260040160a060405180830381865afa158015610396573d6000803e3d6000fd5b505050506040513d601f19601f820116820180604052508101906103ba9190610510565b509198975050505050505050565b6002546001600160a01b0316331461040e5760405162461bcd60e51b81526020600482015260096024820152682737ba1037bbb732b960b91b60448201526064016101d5565b6001600160a01b0381166104595760405162461bcd60e51b815260206004820152601260248201527124b73b30b634b21030b3b3b932b3b0ba37b960711b60448201526064016101d5565b60009182526020828152604080842080546001600160a01b0319166001600160a01b0394909416939093179092556001908190529120805460ff19169091179055565b6000602082840312156104ae57600080fd5b5035919050565b600080604083850312156104c857600080fd5b8235915060208301356001600160a01b03811681146104e657600080fd5b809150509250929050565b805169ffffffffffffffffffff8116811461050b57600080fd5b919050565b600080600080600060a0868803121561052857600080fd5b610531866104f1565b9450602086015193506040860151925060608601519150610554608087016104f1565b90509295509295909350565b8181038181111561058157634e487b7160e01b600052601160045260246000fd5b9291505056fea2646970667358221220e1fd7d6b7c748345c8b8e3ac96689c8bb20e891cadc5a33dcd05289d25b4703c64736f6c63430008140033",
  "linkReferences": {},
  "deployedLinkReferences": {}
}